{
  "contractName": "MyFactory",
  "abi": [
    {
      "inputs": [
        {
          "internalType": "address",
          "name": "_proxyRegistryAddress",
          "type": "address"
        },
        {
          "internalType": "address",
          "name": "_nftAddress",
          "type": "address"
        }
      ],
      "payable": false,
      "stateMutability": "nonpayable",
      "type": "constructor"
    },
    {
      "anonymous": false,
      "inputs": [
        {
          "indexed": true,
          "internalType": "address",
          "name": "previousOwner",
          "type": "address"
        },
        {
          "indexed": true,
          "internalType": "address",
          "name": "newOwner",
          "type": "address"
        }
      ],
      "name": "OwnershipTransferred",
      "type": "event"
    },
    {
      "constant": true,
      "inputs": [],
      "name": "isOwner",
      "outputs": [
        {
          "internalType": "bool",
          "name": "",
          "type": "bool"
        }
      ],
      "payable": false,
      "stateMutability": "view",
      "type": "function"
    },
    {
      "constant": true,
      "inputs": [],
      "name": "nftAddress",
      "outputs": [
        {
          "internalType": "address",
          "name": "",
          "type": "address"
        }
      ],
      "payable": false,
      "stateMutability": "view",
      "type": "function"
    },
    {
      "constant": true,
      "inputs": [
        {
          "internalType": "uint256",
          "name": "",
          "type": "uint256"
        }
      ],
      "name": "optionToTokenID",
      "outputs": [
        {
          "internalType": "uint256",
          "name": "",
          "type": "uint256"
        }
      ],
      "payable": false,
      "stateMutability": "view",
      "type": "function"
    },
    {
      "constant": true,
      "inputs": [],
      "name": "owner",
      "outputs": [
        {
          "internalType": "address",
          "name": "",
          "type": "address"
        }
      ],
      "payable": false,
      "stateMutability": "view",
      "type": "function"
    },
    {
      "constant": true,
      "inputs": [],
      "name": "proxyRegistryAddress",
      "outputs": [
        {
          "internalType": "address",
          "name": "",
          "type": "address"
        }
      ],
      "payable": false,
      "stateMutability": "view",
      "type": "function"
    },
    {
      "constant": false,
      "inputs": [],
      "name": "renounceOwnership",
      "outputs": [],
      "payable": false,
      "stateMutability": "nonpayable",
      "type": "function"
    },
    {
      "constant": false,
      "inputs": [
        {
          "internalType": "address",
          "name": "newOwner",
          "type": "address"
        }
      ],
      "name": "transferOwnership",
      "outputs": [],
      "payable": false,
      "stateMutability": "nonpayable",
      "type": "function"
    },
    {
      "constant": true,
      "inputs": [],
      "name": "name",
      "outputs": [
        {
          "internalType": "string",
          "name": "",
          "type": "string"
        }
      ],
      "payable": false,
      "stateMutability": "view",
      "type": "function"
    },
    {
      "constant": true,
      "inputs": [],
      "name": "symbol",
      "outputs": [
        {
          "internalType": "string",
          "name": "",
          "type": "string"
        }
      ],
      "payable": false,
      "stateMutability": "view",
      "type": "function"
    },
    {
      "constant": true,
      "inputs": [],
      "name": "supportsFactoryInterface",
      "outputs": [
        {
          "internalType": "bool",
          "name": "",
          "type": "bool"
        }
      ],
      "payable": false,
      "stateMutability": "view",
      "type": "function"
    },
    {
      "constant": true,
      "inputs": [],
      "name": "factorySchemaName",
      "outputs": [
        {
          "internalType": "string",
          "name": "",
          "type": "string"
        }
      ],
      "payable": false,
      "stateMutability": "view",
      "type": "function"
    },
    {
      "constant": true,
      "inputs": [],
      "name": "numOptions",
      "outputs": [
        {
          "internalType": "uint256",
          "name": "",
          "type": "uint256"
        }
      ],
      "payable": false,
      "stateMutability": "view",
      "type": "function"
    },
    {
      "constant": true,
      "inputs": [
        {
          "internalType": "uint256",
          "name": "_optionId",
          "type": "uint256"
        },
        {
          "internalType": "uint256",
          "name": "_amount",
          "type": "uint256"
        }
      ],
      "name": "canMint",
      "outputs": [
        {
          "internalType": "bool",
          "name": "",
          "type": "bool"
        }
      ],
      "payable": false,
      "stateMutability": "view",
      "type": "function"
    },
    {
      "constant": false,
      "inputs": [
        {
          "internalType": "uint256",
          "name": "_optionId",
          "type": "uint256"
        },
        {
          "internalType": "address",
          "name": "_toAddress",
          "type": "address"
        },
        {
          "internalType": "uint256",
          "name": "_amount",
          "type": "uint256"
        },
        {
          "internalType": "bytes",
          "name": "_data",
          "type": "bytes"
        }
      ],
      "name": "mint",
      "outputs": [],
      "payable": false,
      "stateMutability": "nonpayable",
      "type": "function"
    },
    {
      "constant": true,
      "inputs": [
        {
          "internalType": "uint256",
          "name": "_optionId",
          "type": "uint256"
        }
      ],
      "name": "uri",
      "outputs": [
        {
          "internalType": "string",
          "name": "",
          "type": "string"
        }
      ],
      "payable": false,
      "stateMutability": "view",
      "type": "function"
    },
    {
      "constant": true,
      "inputs": [
        {
          "internalType": "address",
          "name": "_owner",
          "type": "address"
        },
        {
          "internalType": "uint256",
          "name": "_optionId",
          "type": "uint256"
        }
      ],
      "name": "balanceOf",
      "outputs": [
        {
          "internalType": "uint256",
          "name": "",
          "type": "uint256"
        }
      ],
      "payable": false,
      "stateMutability": "view",
      "type": "function"
    },
    {
      "constant": false,
      "inputs": [
        {
          "internalType": "address",
          "name": "",
          "type": "address"
        },
        {
          "internalType": "address",
          "name": "_to",
          "type": "address"
        },
        {
          "internalType": "uint256",
          "name": "_optionId",
          "type": "uint256"
        },
        {
          "internalType": "uint256",
          "name": "_amount",
          "type": "uint256"
        },
        {
          "internalType": "bytes",
          "name": "_data",
          "type": "bytes"
        }
      ],
      "name": "safeTransferFrom",
      "outputs": [],
      "payable": false,
      "stateMutability": "nonpayable",
      "type": "function"
    },
    {
      "constant": true,
      "inputs": [
        {
          "internalType": "address",
          "name": "_owner",
          "type": "address"
        },
        {
          "internalType": "address",
          "name": "_operator",
          "type": "address"
        }
      ],
      "name": "isApprovedForAll",
      "outputs": [
        {
          "internalType": "bool",
          "name": "",
          "type": "bool"
        }
      ],
      "payable": false,
      "stateMutability": "view",
      "type": "function"
    }
  ],
  "bytecode": "0x608060405234801561001057600080fd5b50604051611b14380380611b148339818101604052604081101561003357600080fd5b810190808051906020019092919080519060200190929190505050600061005e6101a060201b60201c565b9050806000806101000a81548173ffffffffffffffffffffffffffffffffffffffff021916908373ffffffffffffffffffffffffffffffffffffffff1602179055508073ffffffffffffffffffffffffffffffffffffffff16600073ffffffffffffffffffffffffffffffffffffffff167f8be0079c531659141344cd1fd0a4f28419497f9722a3daafe3b4186f6b6457e060405160405180910390a3506001600060146101000a81548160ff02191690831515021790555081600160006101000a81548173ffffffffffffffffffffffffffffffffffffffff021916908373ffffffffffffffffffffffffffffffffffffffff16021790555080600260006101000a81548173ffffffffffffffffffffffffffffffffffffffff021916908373ffffffffffffffffffffffffffffffffffffffff16021790555050506101a8565b600033905090565b61195d806101b76000396000f3fe608060405234801561001057600080fd5b50600436106101155760003560e01c80638f32d59b116100a2578063c77b66c211610071578063c77b66c21461053e578063cd7c03261461062d578063e985e9c514610677578063f242432a146106f3578063f2fde38b146107c057610115565b80638f32d59b1461043557806395d89b41146104575780639d144762146104da578063c311c5231461051c57610115565b806345df5787116100e957806345df5787146102f65780634b97aed9146103795780635bf8633a14610397578063715018a6146103e15780638da5cb5b146103eb57610115565b8062fdd58e1461011a57806306fdde031461017c5780630e89341c146101ff57806322e1dea9146102a6575b600080fd5b6101666004803603604081101561013057600080fd5b81019080803573ffffffffffffffffffffffffffffffffffffffff16906020019092919080359060200190929190505050610804565b6040518082815260200191505060405180910390f35b610184610920565b6040518080602001828103825283818151815260200191508051906020019080838360005b838110156101c45780820151818401526020810190506101a9565b50505050905090810190601f1680156101f15780820380516001836020036101000a031916815260200191505b509250505060405180910390f35b61022b6004803603602081101561021557600080fd5b810190808035906020019092919050505061095d565b6040518080602001828103825283818151815260200191508051906020019080838360005b8381101561026b578082015181840152602081019050610250565b50505050905090810190601f1680156102985780820380516001836020036101000a031916815260200191505b509250505060405180910390f35b6102dc600480360360408110156102bc57600080fd5b8101908080359060200190929190803590602001909291905050506109c6565b604051808215151515815260200191505060405180910390f35b6102fe6109e6565b6040518080602001828103825283818151815260200191508051906020019080838360005b8381101561033e578082015181840152602081019050610323565b50505050905090810190601f16801561036b5780820380516001836020036101000a031916815260200191505b509250505060405180910390f35b610381610a23565b6040518082815260200191505060405180910390f35b61039f610a2c565b604051808273ffffffffffffffffffffffffffffffffffffffff1673ffffffffffffffffffffffffffffffffffffffff16815260200191505060405180910390f35b6103e9610a52565b005b6103f3610b8b565b604051808273ffffffffffffffffffffffffffffffffffffffff1673ffffffffffffffffffffffffffffffffffffffff16815260200191505060405180910390f35b61043d610bb4565b604051808215151515815260200191505060405180910390f35b61045f610c12565b6040518080602001828103825283818151815260200191508051906020019080838360005b8381101561049f578082015181840152602081019050610484565b50505050905090810190601f1680156104cc5780820380516001836020036101000a031916815260200191505b509250505060405180910390f35b610506600480360360208110156104f057600080fd5b8101908080359060200190929190505050610c4f565b6040518082815260200191505060405180910390f35b610524610c67565b604051808215151515815260200191505060405180910390f35b61062b6004803603608081101561055457600080fd5b8101908080359060200190929190803573ffffffffffffffffffffffffffffffffffffffff16906020019092919080359060200190929190803590602001906401000000008111156105a557600080fd5b8201836020820111156105b757600080fd5b803590602001918460018302840111640100000000831117156105d957600080fd5b91908080601f016020809104026020016040519081016040528093929190818152602001838380828437600081840152601f19601f820116905080830192505050505050509192919290505050610c70565b005b610635610c8d565b604051808273ffffffffffffffffffffffffffffffffffffffff1673ffffffffffffffffffffffffffffffffffffffff16815260200191505060405180910390f35b6106d96004803603604081101561068d57600080fd5b81019080803573ffffffffffffffffffffffffffffffffffffffff169060200190929190803573ffffffffffffffffffffffffffffffffffffffff169060200190929190505050610cb3565b604051808215151515815260200191505060405180910390f35b6107be600480360360a081101561070957600080fd5b81019080803573ffffffffffffffffffffffffffffffffffffffff169060200190929190803573ffffffffffffffffffffffffffffffffffffffff16906020019092919080359060200190929190803590602001909291908035906020019064010000000081111561077a57600080fd5b82018360208201111561078c57600080fd5b803590602001918460018302840111640100000000831117156107ae57600080fd5b9091929391929390505050610d04565b005b610802600480360360208110156107d657600080fd5b81019080803573ffffffffffffffffffffffffffffffffffffffff169060200190929190505050610d67565b005b600061080f83610ded565b61081c576000905061091a565b60006003600084815260200190815260200160002054905060008114156108485760001991505061091a565b6000600260009054906101000a900473ffffffffffffffffffffffffffffffffffffffff16905060008173ffffffffffffffffffffffffffffffffffffffff1663bd85b039846040518263ffffffff1660e01b81526004018082815260200191505060206040518083038186803b1580156108c257600080fd5b505afa1580156108d6573d6000803e3d6000fd5b505050506040513d60208110156108ec57600080fd5b8101908080519060200190929190505050905061091481600019610f4790919063ffffffff16565b93505050505b92915050565b60606040518060400160405280601781526020017f4d7920436f6c6c65637469626c65205072652d53616c65000000000000000000815250905090565b60606109bf6040518060600160405280603081526020016118f9603091396040518060400160405280600881526020017f666163746f72792f0000000000000000000000000000000000000000000000008152506109ba85610fd0565b6110fd565b9050919050565b60006109de338460028111156109d857fe5b84611133565b905092915050565b60606040518060400160405280600781526020017f4552433131353500000000000000000000000000000000000000000000000000815250905090565b60006003905090565b600260009054906101000a900473ffffffffffffffffffffffffffffffffffffffff1681565b610a5a610bb4565b610acc576040517f08c379a00000000000000000000000000000000000000000000000000000000081526004018080602001828103825260208152602001807f4f776e61626c653a2063616c6c6572206973206e6f7420746865206f776e657281525060200191505060405180910390fd5b600073ffffffffffffffffffffffffffffffffffffffff166000809054906101000a900473ffffffffffffffffffffffffffffffffffffffff1673ffffffffffffffffffffffffffffffffffffffff167f8be0079c531659141344cd1fd0a4f28419497f9722a3daafe3b4186f6b6457e060405160405180910390a360008060006101000a81548173ffffffffffffffffffffffffffffffffffffffff021916908373ffffffffffffffffffffffffffffffffffffffff160217905550565b60008060009054906101000a900473ffffffffffffffffffffffffffffffffffffffff16905090565b60008060009054906101000a900473ffffffffffffffffffffffffffffffffffffffff1673ffffffffffffffffffffffffffffffffffffffff16610bf6611167565b73ffffffffffffffffffffffffffffffffffffffff1614905090565b60606040518060400160405280600381526020017f4d43500000000000000000000000000000000000000000000000000000000000815250905090565b60036020528060005260406000206000915090505481565b60006001905090565b610c87846002811115610c7f57fe5b84848461116f565b50505050565b600160009054906101000a900473ffffffffffffffffffffffffffffffffffffffff1681565b60008273ffffffffffffffffffffffffffffffffffffffff16610cd4610b8b565b73ffffffffffffffffffffffffffffffffffffffff16148015610cfc5750610cfb82610ded565b5b905092915050565b610d5f846002811115610d1357fe5b868585858080601f016020809104026020016040519081016040528093929190818152602001838380828437600081840152601f19601f8201169050808301925050505050505061116f565b505050505050565b610d6f610bb4565b610de1576040517f08c379a00000000000000000000000000000000000000000000000000000000081526004018080602001828103825260208152602001807f4f776e61626c653a2063616c6c6572206973206e6f7420746865206f776e657281525060200191505060405180910390fd5b610dea816114a7565b50565b600080600160009054906101000a900473ffffffffffffffffffffffffffffffffffffffff1690508273ffffffffffffffffffffffffffffffffffffffff16610e34610b8b565b73ffffffffffffffffffffffffffffffffffffffff161480610f3f57508273ffffffffffffffffffffffffffffffffffffffff168173ffffffffffffffffffffffffffffffffffffffff1663c4552791610e8c610b8b565b6040518263ffffffff1660e01b8152600401808273ffffffffffffffffffffffffffffffffffffffff1673ffffffffffffffffffffffffffffffffffffffff16815260200191505060206040518083038186803b158015610eec57600080fd5b505afa158015610f00573d6000803e3d6000fd5b505050506040513d6020811015610f1657600080fd5b810190808051906020019092919050505073ffffffffffffffffffffffffffffffffffffffff16145b915050919050565b600082821115610fbf576040517f08c379a00000000000000000000000000000000000000000000000000000000081526004018080602001828103825260178152602001807f536166654d617468237375623a20554e444552464c4f5700000000000000000081525060200191505060405180910390fd5b600082840390508091505092915050565b60606000821415611018576040518060400160405280600181526020017f300000000000000000000000000000000000000000000000000000000000000081525090506110f8565b600082905060005b60008214611042578080600101915050600a828161103a57fe5b049150611020565b6060816040519080825280601f01601f1916602001820160405280156110775781602001600182028038833980820191505090505b50905060006001830390505b600086146110f057600a868161109557fe5b0660300160f81b828280600190039350815181106110af57fe5b60200101907effffffffffffffffffffffffffffffffffffffffffffffffffffffffffffff1916908160001a905350600a86816110e857fe5b049550611083565b819450505050505b919050565b606061112a84848460405180602001604052806000815250604051806020016040528060008152506115eb565b90509392505050565b60008083600281111561114257fe5b905060008311801561115d57508261115a8683610804565b10155b9150509392505050565b600033905090565b61117a338584611133565b6111cf576040517f08c379a00000000000000000000000000000000000000000000000000000000081526004018080602001828103825260218152602001806118d86021913960400191505060405180910390fd5b60008460028111156111dd57fe5b90506000600260009054906101000a900473ffffffffffffffffffffffffffffffffffffffff1690506000600360008481526020019081526020016000205490506000811415611389578173ffffffffffffffffffffffffffffffffffffffff1663e38e3b248787876040518463ffffffff1660e01b8152600401808473ffffffffffffffffffffffffffffffffffffffff1673ffffffffffffffffffffffffffffffffffffffff1681526020018381526020018060200180602001838103835260008152602001602001838103825284818151815260200191508051906020019080838360005b838110156112e05780820151818401526020810190506112c5565b50505050905090810190601f16801561130d5780820380516001836020036101000a031916815260200191505b5095505050505050602060405180830381600087803b15801561132f57600080fd5b505af1158015611343573d6000803e3d6000fd5b505050506040513d602081101561135957600080fd5b8101908080519060200190929190505050905080600360008581526020019081526020016000208190555061149e565b8173ffffffffffffffffffffffffffffffffffffffff1663731133e9878388886040518563ffffffff1660e01b8152600401808573ffffffffffffffffffffffffffffffffffffffff1673ffffffffffffffffffffffffffffffffffffffff16815260200184815260200183815260200180602001828103825283818151815260200191508051906020019080838360005b8381101561143657808201518184015260208101905061141b565b50505050905090810190601f1680156114635780820380516001836020036101000a031916815260200191505b5095505050505050600060405180830381600087803b15801561148557600080fd5b505af1158015611499573d6000803e3d6000fd5b505050505b50505050505050565b600073ffffffffffffffffffffffffffffffffffffffff168173ffffffffffffffffffffffffffffffffffffffff16141561152d576040517f08c379a00000000000000000000000000000000000000000000000000000000081526004018080602001828103825260268152602001806118b26026913960400191505060405180910390fd5b8073ffffffffffffffffffffffffffffffffffffffff166000809054906101000a900473ffffffffffffffffffffffffffffffffffffffff1673ffffffffffffffffffffffffffffffffffffffff167f8be0079c531659141344cd1fd0a4f28419497f9722a3daafe3b4186f6b6457e060405160405180910390a3806000806101000a81548173ffffffffffffffffffffffffffffffffffffffff021916908373ffffffffffffffffffffffffffffffffffffffff16021790555050565b6060808690506060869050606086905060608690506060869050606081518351855187518951010101016040519080825280601f01601f1916602001820160405280156116475781602001600182028038833980820191505090505b5090506060819050600080905060008090505b88518110156116c85788818151811061166f57fe5b602001015160f81c60f81b83838060010194508151811061168c57fe5b60200101907effffffffffffffffffffffffffffffffffffffffffffffffffffffffffffff1916908160001a905350808060010191505061165a565b5060008090505b875181101561173d578781815181106116e457fe5b602001015160f81c60f81b83838060010194508151811061170157fe5b60200101907effffffffffffffffffffffffffffffffffffffffffffffffffffffffffffff1916908160001a90535080806001019150506116cf565b5060008090505b86518110156117b25786818151811061175957fe5b602001015160f81c60f81b83838060010194508151811061177657fe5b60200101907effffffffffffffffffffffffffffffffffffffffffffffffffffffffffffff1916908160001a9053508080600101915050611744565b5060008090505b8551811015611827578581815181106117ce57fe5b602001015160f81c60f81b8383806001019450815181106117eb57fe5b60200101907effffffffffffffffffffffffffffffffffffffffffffffffffffffffffffff1916908160001a90535080806001019150506117b9565b5060008090505b845181101561189c5784818151811061184357fe5b602001015160f81c60f81b83838060010194508151811061186057fe5b60200101907effffffffffffffffffffffffffffffffffffffffffffffffffffffffffffff1916908160001a905350808060010191505061182e565b5081985050505050505050509594505050505056fe4f776e61626c653a206e6577206f776e657220697320746865207a65726f20616464726573734d79466163746f7279235f6d696e743a2043414e4e4f545f4d494e545f4d4f524568747470733a2f2f6f70656e7365612d6372656174757265732d6170692e6865726f6b756170702e636f6d2f6170692fa265627a7a72315820bb4193ae39bba9628ae33a71e96adcae4260a232283d133ea175accb7e8f4a5d64736f6c634300050c0032",
  "source": "pragma solidity ^0.5.12;\n\nimport \"openzeppelin-solidity/contracts/ownership/Ownable.sol\";\nimport \"openzeppelin-solidity/contracts/utils/ReentrancyGuard.sol\";\nimport \"./IFactory.sol\";\nimport \"./MyCollectible.sol\";\nimport \"./Strings.sol\";\n\n// WIP\ncontract MyFactory is IFactory, Ownable, ReentrancyGuard {\n  using Strings for string;\n  using SafeMath for uint256;\n\n  address public proxyRegistryAddress;\n  address public nftAddress;\n  string constant internal baseMetadataURI = \"https://opensea-creatures-api.herokuapp.com/api/\";\n  uint256 constant UINT256_MAX = ~uint256(0);\n\n  /**\n   * Optionally set this to a small integer to enforce limited existence per option/token ID\n   * (Otherwise rely on sell orders on OpenSea, which can only be made by the factory owner.)\n   */\n  uint256 constant SUPPLY_PER_TOKEN_ID = UINT256_MAX;\n\n  /**\n   * Three different options for minting MyCollectibles (basic, premium, and gold).\n   */\n  enum Option {\n    Basic,\n    Premium,\n    Gold\n  }\n  uint256 constant NUM_OPTIONS = 3;\n  mapping (uint256 => uint256) public optionToTokenID;\n\n  constructor(address _proxyRegistryAddress, address _nftAddress) public {\n    proxyRegistryAddress = _proxyRegistryAddress;\n    nftAddress = _nftAddress;\n  }\n\n  /////\n  // IFACTORY METHODS\n  /////\n\n  function name() external view returns (string memory) {\n    return \"My Collectible Pre-Sale\";\n  }\n\n  function symbol() external view returns (string memory) {\n    return \"MCP\";\n  }\n\n  function supportsFactoryInterface() external view returns (bool) {\n    return true;\n  }\n\n  function factorySchemaName() external view returns (string memory) {\n    return \"ERC1155\";\n  }\n\n  function numOptions() external view returns (uint256) {\n    return NUM_OPTIONS;\n  }\n\n  function canMint(uint256 _optionId, uint256 _amount) external view returns (bool) {\n    return _canMint(msg.sender, Option(_optionId), _amount);\n  }\n\n  function mint(uint256 _optionId, address _toAddress, uint256 _amount, bytes memory _data) public {\n    return _mint(Option(_optionId), _toAddress, _amount, _data);\n  }\n\n  function uri(uint256 _optionId) external view returns (string memory) {\n    return Strings.strConcat(\n      baseMetadataURI,\n      \"factory/\",\n      Strings.uint2str(_optionId)\n    );\n  }\n\n  /**\n   * @dev Main minting logic implemented here!\n   */\n  function _mint(\n    Option _option,\n    address _toAddress,\n    uint256 _amount,\n    bytes memory _data\n  ) internal {\n    require(_canMint(msg.sender, _option, _amount), \"MyFactory#_mint: CANNOT_MINT_MORE\");\n    uint256 optionId = uint256(_option);\n    MyCollectible nftContract = MyCollectible(nftAddress);\n    uint256 id = optionToTokenID[optionId];\n    if (id == 0) {\n      id = nftContract.create(_toAddress, _amount, \"\", _data);\n      optionToTokenID[optionId] = id;\n    } else {\n      nftContract.mint(_toAddress, id, _amount, _data);\n    }\n  }\n\n  /**\n   * Get the factory's ownership of Option.\n   * Should be the amount it can still mint.\n   * NOTE: Called by `canMint`\n   */\n  function balanceOf(\n    address _owner,\n    uint256 _optionId\n  ) public view returns (uint256) {\n    if (!_isOwnerOrProxy(_owner)) {\n      // Only the factory owner or owner's proxy can have supply\n      return 0;\n    }\n    uint256 id = optionToTokenID[_optionId];\n    if (id == 0) {\n      // Haven't minted yet\n      return SUPPLY_PER_TOKEN_ID;\n    }\n\n    MyCollectible nftContract = MyCollectible(nftAddress);\n    uint256 currentSupply = nftContract.totalSupply(id);\n    return SUPPLY_PER_TOKEN_ID.sub(currentSupply);\n  }\n\n  /**\n   * Hack to get things to work automatically on OpenSea.\n   * Use safeTransferFrom so the frontend doesn't have to worry about different method names.\n   */\n  function safeTransferFrom(\n    address /* _from */,\n    address _to,\n    uint256 _optionId,\n    uint256 _amount,\n    bytes calldata _data\n  ) external {\n    _mint(Option(_optionId), _to, _amount, _data);\n  }\n\n  //////\n  // Below methods shouldn't need to be overridden or modified\n  //////\n\n  function isApprovedForAll(\n    address _owner,\n    address _operator\n  ) public view returns (bool) {\n    return owner() == _owner && _isOwnerOrProxy(_operator);\n  }\n\n  function _canMint(\n    address _fromAddress,\n    Option _option,\n    uint256 _amount\n  ) internal view returns (bool) {\n    uint256 optionId = uint256(_option);\n    return _amount > 0 && balanceOf(_fromAddress, optionId) >= _amount;\n  }\n\n  function _isOwnerOrProxy(\n    address _address\n  ) internal view returns (bool) {\n    ProxyRegistry proxyRegistry = ProxyRegistry(proxyRegistryAddress);\n    return owner() == _address || address(proxyRegistry.proxies(owner())) == _address;\n  }\n}\n",
  "sourcePath": "/home/salman/Development/Ethereum/Buschcoin/Backend/contracts/MyFactory.sol",
  "compiler": {
    "name": "solc",
    "version": "0.5.12+commit.7709ece9.Emscripten.clang"
  },
  "schemaVersion": "3.3.3",
  "updatedAt": "2021-01-07T09:22:07.566Z",
  "devdoc": {
    "methods": {
      "isOwner()": {
        "details": "Returns true if the caller is the current owner."
      },
      "owner()": {
        "details": "Returns the address of the current owner."
      },
      "renounceOwnership()": {
        "details": "Leaves the contract without owner. It will not be possible to call `onlyOwner` functions anymore. Can only be called by the current owner.     * NOTE: Renouncing ownership will leave the contract without an owner, thereby removing any functionality that is only available to the owner."
      },
      "transferOwnership(address)": {
        "details": "Transfers ownership of the contract to a new account (`newOwner`). Can only be called by the current owner."
      }
    }
  },
  "userdoc": {
    "methods": {
      "balanceOf(address,uint256)": {
        "notice": "Get the factory's ownership of Option. Should be the amount it can still mint. NOTE: Called by `canMint`"
      },
      "isApprovedForAll(address,address)": {
        "notice": "///"
      },
      "name()": {
        "notice": "//"
      },
      "safeTransferFrom(address,address,uint256,uint256,bytes)": {
        "notice": "Hack to get things to work automatically on OpenSea. Use safeTransferFrom so the frontend doesn't have to worry about different method names."
      }
    }
  }
}