{
  "contractName": "MyLootBox",
  "abi": [
    {
      "inputs": [
        {
          "internalType": "address",
          "name": "_proxyRegistryAddress",
          "type": "address"
        },
        {
          "internalType": "address",
          "name": "_nftAddress",
          "type": "address"
        }
      ],
      "payable": false,
      "stateMutability": "nonpayable",
      "type": "constructor"
    },
    {
      "anonymous": false,
      "inputs": [
        {
          "indexed": true,
          "internalType": "uint256",
          "name": "optionId",
          "type": "uint256"
        },
        {
          "indexed": true,
          "internalType": "address",
          "name": "buyer",
          "type": "address"
        },
        {
          "indexed": false,
          "internalType": "uint256",
          "name": "boxesPurchased",
          "type": "uint256"
        },
        {
          "indexed": false,
          "internalType": "uint256",
          "name": "itemsMinted",
          "type": "uint256"
        }
      ],
      "name": "LootBoxOpened",
      "type": "event"
    },
    {
      "anonymous": false,
      "inputs": [
        {
          "indexed": true,
          "internalType": "address",
          "name": "previousOwner",
          "type": "address"
        },
        {
          "indexed": true,
          "internalType": "address",
          "name": "newOwner",
          "type": "address"
        }
      ],
      "name": "OwnershipTransferred",
      "type": "event"
    },
    {
      "anonymous": false,
      "inputs": [
        {
          "indexed": false,
          "internalType": "address",
          "name": "account",
          "type": "address"
        }
      ],
      "name": "Paused",
      "type": "event"
    },
    {
      "anonymous": false,
      "inputs": [
        {
          "indexed": true,
          "internalType": "address",
          "name": "account",
          "type": "address"
        }
      ],
      "name": "PauserAdded",
      "type": "event"
    },
    {
      "anonymous": false,
      "inputs": [
        {
          "indexed": true,
          "internalType": "address",
          "name": "account",
          "type": "address"
        }
      ],
      "name": "PauserRemoved",
      "type": "event"
    },
    {
      "anonymous": false,
      "inputs": [
        {
          "indexed": false,
          "internalType": "address",
          "name": "account",
          "type": "address"
        }
      ],
      "name": "Unpaused",
      "type": "event"
    },
    {
      "anonymous": false,
      "inputs": [
        {
          "indexed": false,
          "internalType": "string",
          "name": "message",
          "type": "string"
        },
        {
          "indexed": false,
          "internalType": "address",
          "name": "account",
          "type": "address"
        }
      ],
      "name": "Warning",
      "type": "event"
    },
    {
      "constant": false,
      "inputs": [
        {
          "internalType": "address",
          "name": "account",
          "type": "address"
        }
      ],
      "name": "addPauser",
      "outputs": [],
      "payable": false,
      "stateMutability": "nonpayable",
      "type": "function"
    },
    {
      "constant": true,
      "inputs": [
        {
          "internalType": "address",
          "name": "_owner",
          "type": "address"
        },
        {
          "internalType": "uint256",
          "name": "_optionId",
          "type": "uint256"
        }
      ],
      "name": "balanceOf",
      "outputs": [
        {
          "internalType": "uint256",
          "name": "",
          "type": "uint256"
        }
      ],
      "payable": false,
      "stateMutability": "view",
      "type": "function"
    },
    {
      "constant": true,
      "inputs": [
        {
          "internalType": "uint256",
          "name": "_optionId",
          "type": "uint256"
        },
        {
          "internalType": "uint256",
          "name": "_amount",
          "type": "uint256"
        }
      ],
      "name": "canMint",
      "outputs": [
        {
          "internalType": "bool",
          "name": "",
          "type": "bool"
        }
      ],
      "payable": false,
      "stateMutability": "view",
      "type": "function"
    },
    {
      "constant": true,
      "inputs": [
        {
          "internalType": "uint256",
          "name": "",
          "type": "uint256"
        }
      ],
      "name": "classIsPreminted",
      "outputs": [
        {
          "internalType": "bool",
          "name": "",
          "type": "bool"
        }
      ],
      "payable": false,
      "stateMutability": "view",
      "type": "function"
    },
    {
      "constant": true,
      "inputs": [
        {
          "internalType": "uint256",
          "name": "",
          "type": "uint256"
        },
        {
          "internalType": "uint256",
          "name": "",
          "type": "uint256"
        }
      ],
      "name": "classToTokenIds",
      "outputs": [
        {
          "internalType": "uint256",
          "name": "",
          "type": "uint256"
        }
      ],
      "payable": false,
      "stateMutability": "view",
      "type": "function"
    },
    {
      "constant": true,
      "inputs": [],
      "name": "factorySchemaName",
      "outputs": [
        {
          "internalType": "string",
          "name": "",
          "type": "string"
        }
      ],
      "payable": false,
      "stateMutability": "view",
      "type": "function"
    },
    {
      "constant": true,
      "inputs": [
        {
          "internalType": "address",
          "name": "_owner",
          "type": "address"
        },
        {
          "internalType": "address",
          "name": "_operator",
          "type": "address"
        }
      ],
      "name": "isApprovedForAll",
      "outputs": [
        {
          "internalType": "bool",
          "name": "",
          "type": "bool"
        }
      ],
      "payable": false,
      "stateMutability": "view",
      "type": "function"
    },
    {
      "constant": true,
      "inputs": [],
      "name": "isOwner",
      "outputs": [
        {
          "internalType": "bool",
          "name": "",
          "type": "bool"
        }
      ],
      "payable": false,
      "stateMutability": "view",
      "type": "function"
    },
    {
      "constant": true,
      "inputs": [
        {
          "internalType": "address",
          "name": "account",
          "type": "address"
        }
      ],
      "name": "isPauser",
      "outputs": [
        {
          "internalType": "bool",
          "name": "",
          "type": "bool"
        }
      ],
      "payable": false,
      "stateMutability": "view",
      "type": "function"
    },
    {
      "constant": false,
      "inputs": [
        {
          "internalType": "uint256",
          "name": "_optionId",
          "type": "uint256"
        },
        {
          "internalType": "address",
          "name": "_toAddress",
          "type": "address"
        },
        {
          "internalType": "uint256",
          "name": "_amount",
          "type": "uint256"
        },
        {
          "internalType": "bytes",
          "name": "_data",
          "type": "bytes"
        }
      ],
      "name": "mint",
      "outputs": [],
      "payable": false,
      "stateMutability": "nonpayable",
      "type": "function"
    },
    {
      "constant": true,
      "inputs": [],
      "name": "nftAddress",
      "outputs": [
        {
          "internalType": "address",
          "name": "",
          "type": "address"
        }
      ],
      "payable": false,
      "stateMutability": "view",
      "type": "function"
    },
    {
      "constant": true,
      "inputs": [],
      "name": "numOptions",
      "outputs": [
        {
          "internalType": "uint256",
          "name": "",
          "type": "uint256"
        }
      ],
      "payable": false,
      "stateMutability": "view",
      "type": "function"
    },
    {
      "constant": true,
      "inputs": [
        {
          "internalType": "uint256",
          "name": "",
          "type": "uint256"
        }
      ],
      "name": "optionToSettings",
      "outputs": [
        {
          "internalType": "uint256",
          "name": "maxQuantityPerOpen",
          "type": "uint256"
        },
        {
          "internalType": "bool",
          "name": "hasGuaranteedClasses",
          "type": "bool"
        }
      ],
      "payable": false,
      "stateMutability": "view",
      "type": "function"
    },
    {
      "constant": true,
      "inputs": [
        {
          "internalType": "uint256",
          "name": "",
          "type": "uint256"
        }
      ],
      "name": "optionToTokenID",
      "outputs": [
        {
          "internalType": "uint256",
          "name": "",
          "type": "uint256"
        }
      ],
      "payable": false,
      "stateMutability": "view",
      "type": "function"
    },
    {
      "constant": true,
      "inputs": [],
      "name": "owner",
      "outputs": [
        {
          "internalType": "address",
          "name": "",
          "type": "address"
        }
      ],
      "payable": false,
      "stateMutability": "view",
      "type": "function"
    },
    {
      "constant": false,
      "inputs": [],
      "name": "pause",
      "outputs": [],
      "payable": false,
      "stateMutability": "nonpayable",
      "type": "function"
    },
    {
      "constant": true,
      "inputs": [],
      "name": "paused",
      "outputs": [
        {
          "internalType": "bool",
          "name": "",
          "type": "bool"
        }
      ],
      "payable": false,
      "stateMutability": "view",
      "type": "function"
    },
    {
      "constant": true,
      "inputs": [],
      "name": "proxyRegistryAddress",
      "outputs": [
        {
          "internalType": "address",
          "name": "",
          "type": "address"
        }
      ],
      "payable": false,
      "stateMutability": "view",
      "type": "function"
    },
    {
      "constant": false,
      "inputs": [],
      "name": "renounceOwnership",
      "outputs": [],
      "payable": false,
      "stateMutability": "nonpayable",
      "type": "function"
    },
    {
      "constant": false,
      "inputs": [],
      "name": "renouncePauser",
      "outputs": [],
      "payable": false,
      "stateMutability": "nonpayable",
      "type": "function"
    },
    {
      "constant": false,
      "inputs": [
        {
          "internalType": "address",
          "name": "",
          "type": "address"
        },
        {
          "internalType": "address",
          "name": "_to",
          "type": "address"
        },
        {
          "internalType": "uint256",
          "name": "_optionId",
          "type": "uint256"
        },
        {
          "internalType": "uint256",
          "name": "_amount",
          "type": "uint256"
        },
        {
          "internalType": "bytes",
          "name": "_data",
          "type": "bytes"
        }
      ],
      "name": "safeTransferFrom",
      "outputs": [],
      "payable": false,
      "stateMutability": "nonpayable",
      "type": "function"
    },
    {
      "constant": true,
      "inputs": [],
      "name": "supportsFactoryInterface",
      "outputs": [
        {
          "internalType": "bool",
          "name": "",
          "type": "bool"
        }
      ],
      "payable": false,
      "stateMutability": "view",
      "type": "function"
    },
    {
      "constant": false,
      "inputs": [
        {
          "internalType": "address",
          "name": "newOwner",
          "type": "address"
        }
      ],
      "name": "transferOwnership",
      "outputs": [],
      "payable": false,
      "stateMutability": "nonpayable",
      "type": "function"
    },
    {
      "constant": false,
      "inputs": [],
      "name": "unpause",
      "outputs": [],
      "payable": false,
      "stateMutability": "nonpayable",
      "type": "function"
    },
    {
      "constant": false,
      "inputs": [
        {
          "internalType": "uint256",
          "name": "_tokenId",
          "type": "uint256"
        },
        {
          "internalType": "uint256",
          "name": "_classId",
          "type": "uint256"
        }
      ],
      "name": "setClassForTokenId",
      "outputs": [],
      "payable": false,
      "stateMutability": "nonpayable",
      "type": "function"
    },
    {
      "constant": false,
      "inputs": [
        {
          "internalType": "enum MyLootBox.Class",
          "name": "_class",
          "type": "uint8"
        },
        {
          "internalType": "uint256[]",
          "name": "_tokenIds",
          "type": "uint256[]"
        }
      ],
      "name": "setTokenIdsForClass",
      "outputs": [],
      "payable": false,
      "stateMutability": "nonpayable",
      "type": "function"
    },
    {
      "constant": false,
      "inputs": [
        {
          "internalType": "uint256",
          "name": "_classId",
          "type": "uint256"
        }
      ],
      "name": "resetClass",
      "outputs": [],
      "payable": false,
      "stateMutability": "nonpayable",
      "type": "function"
    },
    {
      "constant": false,
      "inputs": [
        {
          "internalType": "uint256[6]",
          "name": "_tokenIds",
          "type": "uint256[6]"
        }
      ],
      "name": "setTokenIdsForClasses",
      "outputs": [],
      "payable": false,
      "stateMutability": "nonpayable",
      "type": "function"
    },
    {
      "constant": false,
      "inputs": [
        {
          "internalType": "enum MyFactory.Option",
          "name": "_option",
          "type": "uint8"
        },
        {
          "internalType": "uint256",
          "name": "_maxQuantityPerOpen",
          "type": "uint256"
        },
        {
          "internalType": "uint16[6]",
          "name": "_classProbabilities",
          "type": "uint16[6]"
        },
        {
          "internalType": "uint16[6]",
          "name": "_guarantees",
          "type": "uint16[6]"
        }
      ],
      "name": "setOptionSettings",
      "outputs": [],
      "payable": false,
      "stateMutability": "nonpayable",
      "type": "function"
    },
    {
      "constant": false,
      "inputs": [
        {
          "internalType": "uint256",
          "name": "_newSeed",
          "type": "uint256"
        }
      ],
      "name": "setSeed",
      "outputs": [],
      "payable": false,
      "stateMutability": "nonpayable",
      "type": "function"
    },
    {
      "constant": false,
      "inputs": [
        {
          "internalType": "uint256",
          "name": "_optionId",
          "type": "uint256"
        },
        {
          "internalType": "address",
          "name": "_toAddress",
          "type": "address"
        },
        {
          "internalType": "uint256",
          "name": "_amount",
          "type": "uint256"
        }
      ],
      "name": "open",
      "outputs": [],
      "payable": false,
      "stateMutability": "nonpayable",
      "type": "function"
    },
    {
      "constant": false,
      "inputs": [],
      "name": "withdraw",
      "outputs": [],
      "payable": false,
      "stateMutability": "nonpayable",
      "type": "function"
    },
    {
      "constant": true,
      "inputs": [],
      "name": "name",
      "outputs": [
        {
          "internalType": "string",
          "name": "",
          "type": "string"
        }
      ],
      "payable": false,
      "stateMutability": "view",
      "type": "function"
    },
    {
      "constant": true,
      "inputs": [],
      "name": "symbol",
      "outputs": [
        {
          "internalType": "string",
          "name": "",
          "type": "string"
        }
      ],
      "payable": false,
      "stateMutability": "view",
      "type": "function"
    },
    {
      "constant": true,
      "inputs": [
        {
          "internalType": "uint256",
          "name": "_optionId",
          "type": "uint256"
        }
      ],
      "name": "uri",
      "outputs": [
        {
          "internalType": "string",
          "name": "",
          "type": "string"
        }
      ],
      "payable": false,
      "stateMutability": "view",
      "type": "function"
    }
  ],
  "bytecode": "0x60806040523480156200001157600080fd5b506040516200444638038062004446833981810160405260408110156200003757600080fd5b810190808051906020019092919080519060200190929190505050818162000074620000686200038460201b60201c565b6200038c60201b60201c565b6000620000866200038460201b60201c565b905080600160006101000a81548173ffffffffffffffffffffffffffffffffffffffff021916908373ffffffffffffffffffffffffffffffffffffffff1602179055508073ffffffffffffffffffffffffffffffffffffffff16600073ffffffffffffffffffffffffffffffffffffffff167f8be0079c531659141344cd1fd0a4f28419497f9722a3daafe3b4186f6b6457e060405160405180910390a3506000600160146101000a81548160ff02191690831515021790555060018060156101000a81548160ff02191690831515021790555081600260006101000a81548173ffffffffffffffffffffffffffffffffffffffff021916908373ffffffffffffffffffffffffffffffffffffffff16021790555080600360006101000a81548173ffffffffffffffffffffffffffffffffffffffff021916908373ffffffffffffffffffffffffffffffffffffffff1602179055505050620001e86200079b565b6200024b600060036040518060c00160405280611c8461ffff16815260200161083461ffff16815260200161019061ffff168152602001606461ffff168152602001603261ffff168152602001603261ffff1681525084620003ed60201b60201c565b6003816000600681106200025b57fe5b602002019061ffff16908161ffff1681525050620002d1600160056040518060c00160405280611c2061ffff16815260200161083461ffff16815260200161019061ffff16815260200160c861ffff168152602001603261ffff168152602001603261ffff1681525084620003ed60201b60201c565b600281600260068110620002e157fe5b602002019061ffff16908161ffff16815250506001816004600681106200030457fe5b602002019061ffff16908161ffff16815250506200037b600260076040518060c00160405280611b5861ffff16815260200161083461ffff16815260200161019061ffff16815260200161019061ffff168152602001603261ffff168152602001603261ffff1681525084620003ed60201b60201c565b505050620008f1565b600033905090565b620003a78160006200057060201b62002e9f1790919060201c565b8073ffffffffffffffffffffffffffffffffffffffff167f6719d08c1888103bea251a4ed56406bd0c3e69723c8a1686e017e7bbe159b6f860405160405180910390a250565b620003fd6200065460201b60201c565b62000470576040517f08c379a00000000000000000000000000000000000000000000000000000000081526004018080602001828103825260208152602001807f4f776e61626c653a2063616c6c6572206973206e6f7420746865206f776e657281525060200191505060405180910390fd5b600080905060008090505b6006811015620004b75760008382600681106200049457fe5b602002015161ffff161115620004a957600191505b80806001019150506200047b565b50620004c2620007bd565b604051806080016040528086815260200185815260200183151581526020018481525090508060056000886002811115620004f957fe5b8152602001908152602001600020600082015181600001556020820151816001019060066200052a929190620007f7565b5060408201518160020160006101000a81548160ff02191690831515021790555060608201518160030190600662000564929190620007f7565b50905050505050505050565b620005828282620006bb60201b60201c565b15620005f6576040517f08c379a000000000000000000000000000000000000000000000000000000000815260040180806020018281038252601f8152602001807f526f6c65733a206163636f756e7420616c72656164792068617320726f6c650081525060200191505060405180910390fd5b60018260000160008373ffffffffffffffffffffffffffffffffffffffff1673ffffffffffffffffffffffffffffffffffffffff16815260200190815260200160002060006101000a81548160ff0219169083151502179055505050565b6000600160009054906101000a900473ffffffffffffffffffffffffffffffffffffffff1673ffffffffffffffffffffffffffffffffffffffff166200069f6200038460201b60201c565b73ffffffffffffffffffffffffffffffffffffffff1614905090565b60008073ffffffffffffffffffffffffffffffffffffffff168273ffffffffffffffffffffffffffffffffffffffff16141562000744576040517f08c379a0000000000000000000000000000000000000000000000000000000008152600401808060200182810382526022815260200180620044246022913960400191505060405180910390fd5b8260000160008373ffffffffffffffffffffffffffffffffffffffff1673ffffffffffffffffffffffffffffffffffffffff16815260200190815260200160002060009054906101000a900460ff16905092915050565b6040518060c00160405280600690602082028038833980820191505090505090565b604051806080016040528060008152602001620007d96200089b565b8152602001600015158152602001620007f16200089b565b81525090565b826006600f01601090048101928215620008885791602002820160005b838211156200085657835183826101000a81548161ffff021916908361ffff160217905550926020019260020160208160010104928301926001030262000814565b8015620008865782816101000a81549061ffff021916905560020160208160010104928301926001030262000856565b505b509050620008979190620008bd565b5090565b6040518060c00160405280600690602082028038833980820191505090505090565b620008ee91905b80821115620008ea57600081816101000a81549061ffff021916905550600101620008c4565b5090565b90565b613b2380620009016000396000f3fe608060405234801561001057600080fd5b50600436106102105760003560e01c8063715018a611610125578063c311c523116100ad578063cd7c03261161007c578063cd7c032614610b8d578063e106a70514610bd7578063e985e9c514610c0f578063f242432a14610c8b578063f2fde38b14610d5857610210565b8063c311c52314610a08578063c32a50f914610a2a578063c77b66c214610a58578063c9b38e7114610b4757610210565b80638da5cb5b116100f45780638da5cb5b1461087f5780638f32d59b146108c957806395d89b41146108eb5780639d1447621461096e578063b6147ed5146109b057610210565b8063715018a61461076257806375b266861461076c57806382dc1ec4146108315780638456cb591461087557610210565b80633f4ba83a116101a85780634efc9efd116101775780634efc9efd146105e15780635bf8633a1461062e5780635c975abb14610678578063674b691a1461069a5780636ef8d66d1461075857610210565b80633f4ba83a146104da57806345df5787146104e457806346fbf68e146105675780634b97aed9146105c357610210565b80632493e0a5116101e45780632493e0a5146103f15780632c08584014610456578063392267fc146104845780633ccfd60b146104d057610210565b8062fdd58e1461021557806306fdde03146102775780630e89341c146102fa57806322e1dea9146103a1575b600080fd5b6102616004803603604081101561022b57600080fd5b81019080803573ffffffffffffffffffffffffffffffffffffffff16906020019092919080359060200190929190505050610d9c565b6040518082815260200191505060405180910390f35b61027f610eb8565b6040518080602001828103825283818151815260200191508051906020019080838360005b838110156102bf5780820151818401526020810190506102a4565b50505050905090810190601f1680156102ec5780820380516001836020036101000a031916815260200191505b509250505060405180910390f35b6103266004803603602081101561031057600080fd5b8101908080359060200190929190505050610ef5565b6040518080602001828103825283818151815260200191508051906020019080838360005b8381101561036657808201518184015260208101905061034b565b50505050905090810190601f1680156103935780820380516001836020036101000a031916815260200191505b509250505060405180910390f35b6103d7600480360360408110156103b757600080fd5b810190808035906020019092919080359060200190929190505050610f5e565b604051808215151515815260200191505060405180910390f35b610454600480360360c081101561040757600080fd5b810190808060c001906006806020026040519081016040528092919082600660200280828437600081840152601f19601f8201169050808301925050505050509192919290505050610f7e565b005b6104826004803603602081101561046c57600080fd5b810190808035906020019092919050505061104b565b005b6104ba6004803603604081101561049a57600080fd5b81019080803590602001909291908035906020019092919050505061110a565b6040518082815260200191505060405180910390f35b6104d8611138565b005b6104e2611212565b005b6104ec611380565b6040518080602001828103825283818151815260200191508051906020019080838360005b8381101561052c578082015181840152602081019050610511565b50505050905090810190601f1680156105595780820380516001836020036101000a031916815260200191505b509250505060405180910390f35b6105a96004803603602081101561057d57600080fd5b81019080803573ffffffffffffffffffffffffffffffffffffffff1690602001909291905050506113bd565b604051808215151515815260200191505060405180910390f35b6105cb6113da565b6040518082815260200191505060405180910390f35b61060d600480360360208110156105f757600080fd5b81019080803590602001909291905050506113e3565b60405180838152602001821515151581526020019250505060405180910390f35b610636611414565b604051808273ffffffffffffffffffffffffffffffffffffffff1673ffffffffffffffffffffffffffffffffffffffff16815260200191505060405180910390f35b61068061143a565b604051808215151515815260200191505060405180910390f35b61075660048036036101c08110156106b157600080fd5b81019080803560ff169060200190929190803590602001909291908060c001906006806020026040519081016040528092919082600660200280828437600081840152601f19601f82011690508083019250505050505091929192908060c001906006806020026040519081016040528092919082600660200280828437600081840152601f19601f8201169050808301925050505050509192919290505050611451565b005b6107606115c0565b005b61076a6115d2565b005b61082f6004803603604081101561078257600080fd5b81019080803560ff169060200190929190803590602001906401000000008111156107ac57600080fd5b8201836020820111156107be57600080fd5b803590602001918460208302840111640100000000831117156107e057600080fd5b919080806020026020016040519081016040528093929190818152602001838360200280828437600081840152601f19601f82011690508083019250505050505050919291929050505061170d565b005b6108736004803603602081101561084757600080fd5b81019080803573ffffffffffffffffffffffffffffffffffffffff1690602001909291905050506117f0565b005b61087d611861565b005b6108876119cf565b604051808273ffffffffffffffffffffffffffffffffffffffff1673ffffffffffffffffffffffffffffffffffffffff16815260200191505060405180910390f35b6108d16119f9565b604051808215151515815260200191505060405180910390f35b6108f3611a58565b6040518080602001828103825283818151815260200191508051906020019080838360005b83811015610933578082015181840152602081019050610918565b50505050905090810190601f1680156109605780820380516001836020036101000a031916815260200191505b509250505060405180910390f35b61099a6004803603602081101561098457600080fd5b8101908080359060200190929190505050611a95565b6040518082815260200191505060405180910390f35b610a06600480360360608110156109c657600080fd5b8101908080359060200190929190803573ffffffffffffffffffffffffffffffffffffffff16906020019092919080359060200190929190505050611aad565b005b610a10611b52565b604051808215151515815260200191505060405180910390f35b610a5660048036036020811015610a4057600080fd5b8101908080359060200190929190505050611b5b565b005b610b4560048036036080811015610a6e57600080fd5b8101908080359060200190929190803573ffffffffffffffffffffffffffffffffffffffff1690602001909291908035906020019092919080359060200190640100000000811115610abf57600080fd5b820183602082011115610ad157600080fd5b80359060200191846001830284011164010000000083111715610af357600080fd5b91908080601f016020809104026020016040519081016040528093929190818152602001838380828437600081840152601f19601f820116905080830192505050505050509192919290505050611bdf565b005b610b7360048036036020811015610b5d57600080fd5b8101908080359060200190929190505050611bfc565b604051808215151515815260200191505060405180910390f35b610b95611c1c565b604051808273ffffffffffffffffffffffffffffffffffffffff1673ffffffffffffffffffffffffffffffffffffffff16815260200191505060405180910390f35b610c0d60048036036040811015610bed57600080fd5b810190808035906020019092919080359060200190929190505050611c42565b005b610c7160048036036040811015610c2557600080fd5b81019080803573ffffffffffffffffffffffffffffffffffffffff169060200190929190803573ffffffffffffffffffffffffffffffffffffffff169060200190929190505050611cdd565b604051808215151515815260200191505060405180910390f35b610d56600480360360a0811015610ca157600080fd5b81019080803573ffffffffffffffffffffffffffffffffffffffff169060200190929190803573ffffffffffffffffffffffffffffffffffffffff169060200190929190803590602001909291908035906020019092919080359060200190640100000000811115610d1257600080fd5b820183602082011115610d2457600080fd5b80359060200191846001830284011164010000000083111715610d4657600080fd5b9091929391929390505050611d2e565b005b610d9a60048036036020811015610d6e57600080fd5b81019080803573ffffffffffffffffffffffffffffffffffffffff169060200190929190505050611d91565b005b6000610da783611e17565b610db45760009050610eb2565b6000600460008481526020019081526020016000205490506000811415610de057600019915050610eb2565b6000600360009054906101000a900473ffffffffffffffffffffffffffffffffffffffff16905060008173ffffffffffffffffffffffffffffffffffffffff1663bd85b039846040518263ffffffff1660e01b81526004018082815260200191505060206040518083038186803b158015610e5a57600080fd5b505afa158015610e6e573d6000803e3d6000fd5b505050506040513d6020811015610e8457600080fd5b81019080805190602001909291905050509050610eac81600019611f7190919063ffffffff16565b93505050505b92915050565b60606040518060400160405280600b81526020017f4d79204c6f6f7420426f78000000000000000000000000000000000000000000815250905090565b6060610f57604051806060016040528060308152602001613abf603091396040518060400160405280600481526020017f626f782f00000000000000000000000000000000000000000000000000000000815250610f5285611ffa565b612127565b9050919050565b6000610f7633846002811115610f7057fe5b8461215d565b905092915050565b610f866119f9565b610ff8576040517f08c379a00000000000000000000000000000000000000000000000000000000081526004018080602001828103825260208152602001807f4f776e61626c653a2063616c6c6572206973206e6f7420746865206f776e657281525060200191505060405180910390fd5b611000612191565b60008090505b600681101561104757600081600581111561101d57fe5b90506110398184846006811061102f57fe5b6020020151612339565b508080600101915050611006565b5050565b6110536119f9565b6110c5576040517f08c379a00000000000000000000000000000000000000000000000000000000081526004018080602001828103825260208152602001807f4f776e61626c653a2063616c6c6572206973206e6f7420746865206f776e657281525060200191505060405180910390fd5b6007600082815260200190815260200160002060006101000a81549060ff02191690556006600082815260200190815260200160002060006111079190613779565b50565b6006602052816000526040600020818154811061112357fe5b90600052602060002001600091509150505481565b6111406119f9565b6111b2576040517f08c379a00000000000000000000000000000000000000000000000000000000081526004018080602001828103825260208152602001807f4f776e61626c653a2063616c6c6572206973206e6f7420746865206f776e657281525060200191505060405180910390fd5b3373ffffffffffffffffffffffffffffffffffffffff166108fc3073ffffffffffffffffffffffffffffffffffffffff16319081150290604051600060405180830381858888f1935050505015801561120f573d6000803e3d6000fd5b50565b61122261121d6123b7565b6113bd565b611277576040517f08c379a00000000000000000000000000000000000000000000000000000000081526004018080602001828103825260308152602001806139336030913960400191505060405180910390fd5b600160149054906101000a900460ff166112f9576040517f08c379a00000000000000000000000000000000000000000000000000000000081526004018080602001828103825260148152602001807f5061757361626c653a206e6f742070617573656400000000000000000000000081525060200191505060405180910390fd5b6000600160146101000a81548160ff0219169083151502179055507f5db9ee0a495bf2e6ff9c91a7834c1ba4fdd244a5e8aa4e537bd38aeae4b073aa61133d6123b7565b604051808273ffffffffffffffffffffffffffffffffffffffff1673ffffffffffffffffffffffffffffffffffffffff16815260200191505060405180910390a1565b60606040518060400160405280600781526020017f4552433131353500000000000000000000000000000000000000000000000000815250905090565b60006113d38260006123bf90919063ffffffff16565b9050919050565b60006003905090565b60056020528060005260406000206000915090508060000154908060020160009054906101000a900460ff16905082565b600360009054906101000a900473ffffffffffffffffffffffffffffffffffffffff1681565b6000600160149054906101000a900460ff16905090565b6114596119f9565b6114cb576040517f08c379a00000000000000000000000000000000000000000000000000000000081526004018080602001828103825260208152602001807f4f776e61626c653a2063616c6c6572206973206e6f7420746865206f776e657281525060200191505060405180910390fd5b600080905060008090505b600681101561150e5760008382600681106114ed57fe5b602002015161ffff16111561150157600191505b80806001019150506114d6565b5061151761379a565b60405180608001604052808681526020018581526020018315158152602001848152509050806005600088600281111561154d57fe5b81526020019081526020016000206000820151816000015560208201518160010190600661157c9291906137d0565b5060408201518160020160006101000a81548160ff0219169083151502179055506060820151816003019060066115b49291906137d0565b50905050505050505050565b6115d06115cb6123b7565b61249d565b565b6115da6119f9565b61164c576040517f08c379a00000000000000000000000000000000000000000000000000000000081526004018080602001828103825260208152602001807f4f776e61626c653a2063616c6c6572206973206e6f7420746865206f776e657281525060200191505060405180910390fd5b600073ffffffffffffffffffffffffffffffffffffffff16600160009054906101000a900473ffffffffffffffffffffffffffffffffffffffff1673ffffffffffffffffffffffffffffffffffffffff167f8be0079c531659141344cd1fd0a4f28419497f9722a3daafe3b4186f6b6457e060405160405180910390a36000600160006101000a81548173ffffffffffffffffffffffffffffffffffffffff021916908373ffffffffffffffffffffffffffffffffffffffff160217905550565b6117156119f9565b611787576040517f08c379a00000000000000000000000000000000000000000000000000000000081526004018080602001828103825260208152602001807f4f776e61626c653a2063616c6c6572206973206e6f7420746865206f776e657281525060200191505060405180910390fd5b600082600581111561179557fe5b905060016007600083815260200190815260200160002060006101000a81548160ff021916908315150217905550816006600083815260200190815260200160002090805190602001906117ea92919061386d565b50505050565b6118006117fb6123b7565b6113bd565b611855576040517f08c379a00000000000000000000000000000000000000000000000000000000081526004018080602001828103825260308152602001806139336030913960400191505060405180910390fd5b61185e816124f7565b50565b61187161186c6123b7565b6113bd565b6118c6576040517f08c379a00000000000000000000000000000000000000000000000000000000081526004018080602001828103825260308152602001806139336030913960400191505060405180910390fd5b600160149054906101000a900460ff1615611949576040517f08c379a00000000000000000000000000000000000000000000000000000000081526004018080602001828103825260108152602001807f5061757361626c653a207061757365640000000000000000000000000000000081525060200191505060405180910390fd5b60018060146101000a81548160ff0219169083151502179055507f62e78cea01bee320cd4e420270b5ea74000d11b0c9f74754ebdbfc544b05a25861198c6123b7565b604051808273ffffffffffffffffffffffffffffffffffffffff1673ffffffffffffffffffffffffffffffffffffffff16815260200191505060405180910390a1565b6000600160009054906101000a900473ffffffffffffffffffffffffffffffffffffffff16905090565b6000600160009054906101000a900473ffffffffffffffffffffffffffffffffffffffff1673ffffffffffffffffffffffffffffffffffffffff16611a3c6123b7565b73ffffffffffffffffffffffffffffffffffffffff1614905090565b60606040518060400160405280600681526020017f4d594c4f4f540000000000000000000000000000000000000000000000000000815250905090565b60046020528060005260406000206000915090505481565b611ab56119f9565b611b27576040517f08c379a00000000000000000000000000000000000000000000000000000000081526004018080602001828103825260208152602001807f4f776e61626c653a2063616c6c6572206973206e6f7420746865206f776e657281525060200191505060405180910390fd5b611b4d836002811115611b3657fe5b838360405180602001604052806000815250612551565b505050565b60006001905090565b611b636119f9565b611bd5576040517f08c379a00000000000000000000000000000000000000000000000000000000081526004018080602001828103825260208152602001807f4f776e61626c653a2063616c6c6572206973206e6f7420746865206f776e657281525060200191505060405180910390fd5b8060088190555050565b611bf6846002811115611bee57fe5b848484612551565b50505050565b60076020528060005260406000206000915054906101000a900460ff1681565b600260009054906101000a900473ffffffffffffffffffffffffffffffffffffffff1681565b611c4a6119f9565b611cbc576040517f08c379a00000000000000000000000000000000000000000000000000000000081526004018080602001828103825260208152602001807f4f776e61626c653a2063616c6c6572206973206e6f7420746865206f776e657281525060200191505060405180910390fd5b611cc4612191565b611cd9816005811115611cd357fe5b83612339565b5050565b60008273ffffffffffffffffffffffffffffffffffffffff16611cfe6119cf565b73ffffffffffffffffffffffffffffffffffffffff16148015611d265750611d2582611e17565b5b905092915050565b611d89846002811115611d3d57fe5b868585858080601f016020809104026020016040519081016040528093929190818152602001838380828437600081840152601f19601f82011690508083019250505050505050612551565b505050505050565b611d996119f9565b611e0b576040517f08c379a00000000000000000000000000000000000000000000000000000000081526004018080602001828103825260208152602001807f4f776e61626c653a2063616c6c6572206973206e6f7420746865206f776e657281525060200191505060405180910390fd5b611e14816129d6565b50565b600080600260009054906101000a900473ffffffffffffffffffffffffffffffffffffffff1690508273ffffffffffffffffffffffffffffffffffffffff16611e5e6119cf565b73ffffffffffffffffffffffffffffffffffffffff161480611f6957508273ffffffffffffffffffffffffffffffffffffffff168173ffffffffffffffffffffffffffffffffffffffff1663c4552791611eb66119cf565b6040518263ffffffff1660e01b8152600401808273ffffffffffffffffffffffffffffffffffffffff1673ffffffffffffffffffffffffffffffffffffffff16815260200191505060206040518083038186803b158015611f1657600080fd5b505afa158015611f2a573d6000803e3d6000fd5b505050506040513d6020811015611f4057600080fd5b810190808051906020019092919050505073ffffffffffffffffffffffffffffffffffffffff16145b915050919050565b600082821115611fe9576040517f08c379a00000000000000000000000000000000000000000000000000000000081526004018080602001828103825260178152602001807f536166654d617468237375623a20554e444552464c4f5700000000000000000081525060200191505060405180910390fd5b600082840390508091505092915050565b60606000821415612042576040518060400160405280600181526020017f30000000000000000000000000000000000000000000000000000000000000008152509050612122565b600082905060005b6000821461206c578080600101915050600a828161206457fe5b04915061204a565b6060816040519080825280601f01601f1916602001820160405280156120a15781602001600182028038833980820191505090505b50905060006001830390505b6000861461211a57600a86816120bf57fe5b0660300160f81b828280600190039350815181106120d957fe5b60200101907effffffffffffffffffffffffffffffffffffffffffffffffffffffffffffff1916908160001a905350600a868161211257fe5b0495506120ad565b819450505050505b919050565b60606121548484846040518060200160405280600081525060405180602001604052806000815250612b1c565b90509392505050565b60008083600281111561216c57fe5b90506000831180156121875750826121848683610d9c565b10155b9150509392505050565b6000600360009054906101000a900473ffffffffffffffffffffffffffffffffffffffff1690508073ffffffffffffffffffffffffffffffffffffffff1663e985e9c56121dc6119cf565b306040518363ffffffff1660e01b8152600401808373ffffffffffffffffffffffffffffffffffffffff1673ffffffffffffffffffffffffffffffffffffffff1681526020018273ffffffffffffffffffffffffffffffffffffffff1673ffffffffffffffffffffffffffffffffffffffff1681526020019250505060206040518083038186803b15801561227057600080fd5b505afa158015612284573d6000803e3d6000fd5b505050506040513d602081101561229a57600080fd5b8101908080519060200190929190505050612336577f451d4f1ae08d6bd6c09e16b4a49d885dd20b51decdab1fbd1dbf441029b88efc6122d86119cf565b60405180806020018373ffffffffffffffffffffffffffffffffffffffff1673ffffffffffffffffffffffffffffffffffffffff1681526020018281038252603c815260200180613963603c91396040019250505060405180910390a15b50565b600082600581111561234757fe5b905060016007600083815260200190815260200160002060006101000a81548160ff02191690831515021790555060066000828152602001908152602001600020829080600181540180825580915050906001820390600052602060002001600090919290919091505550505050565b600033905090565b60008073ffffffffffffffffffffffffffffffffffffffff168273ffffffffffffffffffffffffffffffffffffffff161415612446576040517f08c379a0000000000000000000000000000000000000000000000000000000008152600401808060200182810382526022815260200180613a306022913960400191505060405180910390fd5b8260000160008373ffffffffffffffffffffffffffffffffffffffff1673ffffffffffffffffffffffffffffffffffffffff16815260200190815260200160002060009054906101000a900460ff16905092915050565b6124b1816000612de290919063ffffffff16565b8073ffffffffffffffffffffffffffffffffffffffff167fcd265ebaf09df2871cc7bd4133404a235ba12eff2041bb89d9c714a2621c7c7e60405160405180910390a250565b61250b816000612e9f90919063ffffffff16565b8073ffffffffffffffffffffffffffffffffffffffff167f6719d08c1888103bea251a4ed56406bd0c3e69723c8a1686e017e7bbe159b6f860405160405180910390a250565b600160149054906101000a900460ff16156125d4576040517f08c379a00000000000000000000000000000000000000000000000000000000081526004018080602001828103825260108152602001807f5061757361626c653a207061757365640000000000000000000000000000000081525060200191505060405180910390fd5b600160159054906101000a900460ff16612656576040517f08c379a000000000000000000000000000000000000000000000000000000000815260040180806020018281038252601f8152602001807f5265656e7472616e637947756172643a207265656e7472616e742063616c6c0081525060200191505060405180910390fd5b6000600160156101000a81548160ff021916908315150217905550600084600281111561267f57fe5b905061268961379a565b600560008381526020019081526020016000206040518060800160405290816000820154815260200160018201600680602002604051908101604052809291908260068015612715576020028201916000905b82829054906101000a900461ffff1661ffff16815260200190600201906020826001010492830192600103820291508084116126dc5790505b505050505081526020016002820160009054906101000a900460ff161515151581526020016003820160068060200260405190810160405280929190826006801561279d576020028201916000905b82829054906101000a900461ffff1661ffff16815260200190600201906020826001010492830192600103820291508084116127645790505b50505050508152505090506000816000015111612805576040517f08c379a0000000000000000000000000000000000000000000000000000000008152600401808060200182810382526023815260200180613a526023913960400191505060405180910390fd5b61281033878661215d565b612882576040517f08c379a000000000000000000000000000000000000000000000000000000000815260040180806020018281038252601c8152602001807f4d794c6f6f74426f78235f6d696e743a2043414e4e4f545f4d494e540000000081525060200191505060405180910390fd5b600080905060008090505b8581101561295b57600080905083604001511561290c5760008090505b846060015150600681101561290a5760008111156128fd576000856060015182600681106128d457fe5b602002015161ffff1690506128f58260058111156128ee57fe5b8b83612f7a565b508083019250505b80806001019150506128aa565b505b5b836000015181101561294857600060019050600061292e86602001516132e2565b905061293b818b84612f7a565b508183019250505061290d565b808301925050808060010191505061288d565b508573ffffffffffffffffffffffffffffffffffffffff16837fd8c55eae4f6ffa3dfbfba23f50cb5e242e86d347736fe1b910ad11bff616d8398784604051808381526020018281526020019250505060405180910390a350505060018060156101000a81548160ff02191690831515021790555050505050565b600073ffffffffffffffffffffffffffffffffffffffff168173ffffffffffffffffffffffffffffffffffffffff161415612a5c576040517f08c379a000000000000000000000000000000000000000000000000000000000815260040180806020018281038252602681526020018061399f6026913960400191505060405180910390fd5b8073ffffffffffffffffffffffffffffffffffffffff16600160009054906101000a900473ffffffffffffffffffffffffffffffffffffffff1673ffffffffffffffffffffffffffffffffffffffff167f8be0079c531659141344cd1fd0a4f28419497f9722a3daafe3b4186f6b6457e060405160405180910390a380600160006101000a81548173ffffffffffffffffffffffffffffffffffffffff021916908373ffffffffffffffffffffffffffffffffffffffff16021790555050565b6060808690506060869050606086905060608690506060869050606081518351855187518951010101016040519080825280601f01601f191660200182016040528015612b785781602001600182028038833980820191505090505b5090506060819050600080905060008090505b8851811015612bf957888181518110612ba057fe5b602001015160f81c60f81b838380600101945081518110612bbd57fe5b60200101907effffffffffffffffffffffffffffffffffffffffffffffffffffffffffffff1916908160001a9053508080600101915050612b8b565b5060008090505b8751811015612c6e57878181518110612c1557fe5b602001015160f81c60f81b838380600101945081518110612c3257fe5b60200101907effffffffffffffffffffffffffffffffffffffffffffffffffffffffffffff1916908160001a9053508080600101915050612c00565b5060008090505b8651811015612ce357868181518110612c8a57fe5b602001015160f81c60f81b838380600101945081518110612ca757fe5b60200101907effffffffffffffffffffffffffffffffffffffffffffffffffffffffffffff1916908160001a9053508080600101915050612c75565b5060008090505b8551811015612d5857858181518110612cff57fe5b602001015160f81c60f81b838380600101945081518110612d1c57fe5b60200101907effffffffffffffffffffffffffffffffffffffffffffffffffffffffffffff1916908160001a9053508080600101915050612cea565b5060008090505b8451811015612dcd57848181518110612d7457fe5b602001015160f81c60f81b838380600101945081518110612d9157fe5b60200101907effffffffffffffffffffffffffffffffffffffffffffffffffffffffffffff1916908160001a9053508080600101915050612d5f565b50819850505050505050505095945050505050565b612dec82826123bf565b612e41576040517f08c379a00000000000000000000000000000000000000000000000000000000081526004018080602001828103825260218152602001806139c56021913960400191505060405180910390fd5b60008260000160008373ffffffffffffffffffffffffffffffffffffffff1673ffffffffffffffffffffffffffffffffffffffff16815260200190815260200160002060006101000a81548160ff0219169083151502179055505050565b612ea982826123bf565b15612f1c576040517f08c379a000000000000000000000000000000000000000000000000000000000815260040180806020018281038252601f8152602001807f526f6c65733a206163636f756e7420616c72656164792068617320726f6c650081525060200191505060405180910390fd5b60018260000160008373ffffffffffffffffffffffffffffffffffffffff1673ffffffffffffffffffffffffffffffffffffffff16815260200190815260200160002060006101000a81548160ff0219169083151502179055505050565b600080846005811115612f8957fe5b90506000600360009054906101000a900473ffffffffffffffffffffffffffffffffffffffff1690506000612fbe8786613371565b90506007600084815260200190815260200160002060009054906101000a900460ff16156130e1578173ffffffffffffffffffffffffffffffffffffffff1663f242432a61300a6119cf565b8884896040518563ffffffff1660e01b8152600401808573ffffffffffffffffffffffffffffffffffffffff1673ffffffffffffffffffffffffffffffffffffffff1681526020018473ffffffffffffffffffffffffffffffffffffffff1673ffffffffffffffffffffffffffffffffffffffff1681526020018381526020018281526020018060200182810382526000815260200160200195505050505050600060405180830381600087803b1580156130c457600080fd5b505af11580156130d8573d6000803e3d6000fd5b505050506132d5565b6000811415613218578173ffffffffffffffffffffffffffffffffffffffff1663e38e3b2487876040518363ffffffff1660e01b8152600401808373ffffffffffffffffffffffffffffffffffffffff1673ffffffffffffffffffffffffffffffffffffffff1681526020018281526020018060200180602001838103835260008152602001602001838103825260008152602001602001945050505050602060405180830381600087803b15801561319957600080fd5b505af11580156131ad573d6000803e3d6000fd5b505050506040513d60208110156131c357600080fd5b81019080805190602001909291905050509050600660008481526020019081526020016000208190806001815401808255809150509060018203906000526020600020016000909192909190915055506132d4565b8173ffffffffffffffffffffffffffffffffffffffff1663731133e98783886040518463ffffffff1660e01b8152600401808473ffffffffffffffffffffffffffffffffffffffff1673ffffffffffffffffffffffffffffffffffffffff16815260200183815260200182815260200180602001828103825260008152602001602001945050505050600060405180830381600087803b1580156132bb57600080fd5b505af11580156132cf573d6000803e3d6000fd5b505050505b5b8093505050509392505050565b6000806133016127106132f361366d565b6136ef90919063ffffffff16565b90506000600160060390505b600081111561336557600084826006811061332457fe5b602002015190508061ffff168361ffff1610156133515781600581111561334757fe5b935050505061336c565b80830392505080806001900391505061330d565b5060009150505b919050565b60008083600581111561338057fe5b90506060600660008381526020019081526020016000208054806020026020016040519081016040528092919081815260200182805480156133e157602002820191906000526020600020905b8154815260200190600101908083116133cd575b50505050509050600081511415613474576007600083815260200190815260200160002060009054906101000a900460ff1615613469576040517f08c379a000000000000000000000000000000000000000000000000000000000815260040180806020018281038252604a815260200180613a75604a913960600191505060405180910390fd5b600092505050613667565b6000613491825161348361366d565b6136ef90919063ffffffff16565b90506007600084815260200190815260200160002060009054906101000a900460ff161561364d576000600360009054906101000a900473ffffffffffffffffffffffffffffffffffffffff16905060008290505b835183018110156135fb57600084855183816134fe57fe5b068151811061350957fe5b60200260200101519050878373ffffffffffffffffffffffffffffffffffffffff1662fdd58e6135376119cf565b846040518363ffffffff1660e01b8152600401808373ffffffffffffffffffffffffffffffffffffffff1673ffffffffffffffffffffffffffffffffffffffff1681526020018281526020019250505060206040518083038186803b15801561359f57600080fd5b505afa1580156135b3573d6000803e3d6000fd5b505050506040513d60208110156135c957600080fd5b8101908080519060200190929190505050106135ed57809650505050505050613667565b5080806001019150506134e6565b506040517f08c379a000000000000000000000000000000000000000000000000000000000815260040180806020018281038252604a8152602001806139e6604a913960600191505060405180910390fd5b81818151811061365957fe5b602002602001015193505050505b92915050565b600080600143034033600854604051602001808481526020018373ffffffffffffffffffffffffffffffffffffffff1673ffffffffffffffffffffffffffffffffffffffff1660601b815260140182815260200193505050506040516020818303038152906040528051906020012060001c9050806008819055508091505090565b600080821415613767576040517f08c379a000000000000000000000000000000000000000000000000000000000815260040180806020018281038252601e8152602001807f536166654d617468236d6f643a204449564953494f4e5f42595f5a45524f000081525060200191505060405180910390fd5b81838161377057fe5b06905092915050565b508054600082559060005260206000209081019061379791906138ba565b50565b6040518060800160405280600081526020016137b46138df565b81526020016000151581526020016137ca6138df565b81525090565b826006600f0160109004810192821561385c5791602002820160005b8382111561382c57835183826101000a81548161ffff021916908361ffff16021790555092602001926002016020816001010492830192600103026137ec565b801561385a5782816101000a81549061ffff021916905560020160208160010104928301926001030261382c565b505b5090506138699190613901565b5090565b8280548282559060005260206000209081019282156138a9579160200282015b828111156138a857825182559160200191906001019061388d565b5b5090506138b691906138ba565b5090565b6138dc91905b808211156138d85760008160009055506001016138c0565b5090565b90565b6040518060c00160405280600690602082028038833980820191505090505090565b61392f91905b8082111561392b57600081816101000a81549061ffff021916905550600101613907565b5090565b9056fe506175736572526f6c653a2063616c6c657220646f6573206e6f742068617665207468652050617573657220726f6c654c6f6f74626f7820636f6e7472616374206973206e6f7420617070726f76656420666f722074726164696e6720636f6c6c65637469626c652062793a4f776e61626c653a206e6577206f776e657220697320746865207a65726f2061646472657373526f6c65733a206163636f756e7420646f6573206e6f74206861766520726f6c654d794c6f6f74426f78235f7069636b52616e646f6d417661696c61626c65546f6b656e4964466f72436c6173733a204e4f545f454e4f5547485f544f4b454e535f464f525f434c415353526f6c65733a206163636f756e7420697320746865207a65726f20616464726573734d794c6f6f74426f78235f6d696e743a204f5054494f4e5f4e4f545f414c4c4f5745444d794c6f6f74426f78235f7069636b52616e646f6d417661696c61626c65546f6b656e4964466f72436c6173733a204e4f5f544f4b454e5f4f4e5f5052454d494e5445445f434c41535368747470733a2f2f6f70656e7365612d6372656174757265732d6170692e6865726f6b756170702e636f6d2f6170692fa265627a7a7231582067c6a473be88e932d14b645aa96834fa713510915d35e11fd02ecca5bc68d80364736f6c634300050c0032526f6c65733a206163636f756e7420697320746865207a65726f2061646472657373",
  "source": "pragma solidity ^0.5.12;\n\nimport \"openzeppelin-solidity/contracts/utils/ReentrancyGuard.sol\";\nimport \"openzeppelin-solidity/contracts/lifecycle/Pausable.sol\";\nimport \"openzeppelin-solidity/contracts/ownership/Ownable.sol\";\nimport \"./MyCollectible.sol\";\nimport \"./MyFactory.sol\";\nimport \"./ILootBox.sol\";\n\n/**\n * @title MyLootBox\n * MyLootBox - a randomized and openable lootbox of MyCollectibles\n */\ncontract MyLootBox is ILootBox, Ownable, Pausable, ReentrancyGuard, MyFactory {\n  using SafeMath for uint256;\n\n  // Event for logging lootbox opens\n  event LootBoxOpened(uint256 indexed optionId, address indexed buyer, uint256 boxesPurchased, uint256 itemsMinted);\n  event Warning(string message, address account);\n\n  // Must be sorted by rarity\n  enum Class {\n    Common,\n    Rare,\n    Epic,\n    Legendary,\n    Divine,\n    Hidden\n  }\n  uint256 constant NUM_CLASSES = 6;\n\n  // NOTE: Price of the lootbox is set via sell orders on OpenSea\n  struct OptionSettings {\n    // Number of items to send per open.\n    // Set to 0 to disable this Option.\n    uint256 maxQuantityPerOpen;\n    // Probability in basis points (out of 10,000) of receiving each class (descending)\n    uint16[NUM_CLASSES] classProbabilities;\n    // Whether to enable `guarantees` below\n    bool hasGuaranteedClasses;\n    // Number of items you're guaranteed to get, for each class\n    uint16[NUM_CLASSES] guarantees;\n  }\n  mapping (uint256 => OptionSettings) public optionToSettings;\n  mapping (uint256 => uint256[]) public classToTokenIds;\n  mapping (uint256 => bool) public classIsPreminted;\n  uint256 seed;\n  uint256 constant INVERSE_BASIS_POINT = 10000;\n\n  /**\n   * @dev Example constructor. Calls setOptionSettings for you with\n   *      sample settings\n   * @param _proxyRegistryAddress The address of the OpenSea/Wyvern proxy registry\n   *                              On Rinkeby: \"0xf57b2c51ded3a29e6891aba85459d600256cf317\"\n   *                              On mainnet: \"0xa5409ec958c83c3f309868babaca7c86dcb077c1\"\n   * @param _nftAddress The address of the non-fungible/semi-fungible item contract\n   *                    that you want to mint/transfer with each open\n   */\n  constructor(\n    address _proxyRegistryAddress,\n    address _nftAddress\n  ) MyFactory(\n    _proxyRegistryAddress,\n    _nftAddress\n  ) public {\n    // Example settings and probabilities\n    // you can also call these after deploying\n    uint16[NUM_CLASSES] memory guarantees;\n    setOptionSettings(Option.Basic, 3, [7300, 2100, 400, 100, 50, 50], guarantees);\n    // Note that tokens ids will be one higher than the indexes used here.\n    guarantees[0] = 3;\n    setOptionSettings(Option.Premium, 5, [7200, 2100, 400, 200, 50, 50], guarantees);\n    guarantees[2] = 2;\n    guarantees[4] = 1;\n    setOptionSettings(Option.Gold, 7, [7000, 2100, 400, 400, 50, 50], guarantees);\n  }\n\n  //////\n  // INITIALIZATION FUNCTIONS FOR OWNER\n  //////\n\n  /**\n   * @dev If the tokens for some class are pre-minted and owned by the\n   * contract owner, they can be used for a given class by setting them here\n   */\n  function setClassForTokenId(\n    uint256 _tokenId,\n    uint256 _classId\n  ) public onlyOwner {\n    _checkTokenApproval();\n    _addTokenIdToClass(Class(_classId), _tokenId);\n  }\n\n  /**\n   * @dev Alternate way to add token ids to a class\n   * Note: resets the full list for the class instead of adding each token id\n   */\n  function setTokenIdsForClass(\n    Class _class,\n    uint256[] memory _tokenIds\n  ) public onlyOwner {\n    uint256 classId = uint256(_class);\n    classIsPreminted[classId] = true;\n    classToTokenIds[classId] = _tokenIds;\n  }\n\n  /**\n   * @dev Remove all token ids for a given class, causing it to fall back to\n   * creating/minting into the nft address\n   */\n  function resetClass(\n    uint256 _classId\n  ) public onlyOwner {\n    delete classIsPreminted[_classId];\n    delete classToTokenIds[_classId];\n  }\n\n  /**\n   * @dev Set token IDs for each rarity class. Bulk version of `setTokenIdForClass`\n   * @param _tokenIds List of token IDs to set for each class, specified above in order\n   */\n  function setTokenIdsForClasses(\n    uint256[NUM_CLASSES] memory _tokenIds\n  ) public onlyOwner {\n    _checkTokenApproval();\n    for (uint256 i = 0; i < _tokenIds.length; i++) {\n      Class class = Class(i);\n      _addTokenIdToClass(class, _tokenIds[i]);\n    }\n  }\n\n  /**\n   * @dev Set the settings for a particular lootbox option\n   * @param _option The Option to set settings for\n   * @param _maxQuantityPerOpen Maximum number of items to mint per open.\n   *                            Set to 0 to disable this option.\n   * @param _classProbabilities Array of probabilities (basis points, so integers out of 10,000)\n   *                            of receiving each class (the index in the array).\n   *                            Should add up to 10k and be descending in value.\n   * @param _guarantees         Array of the number of guaranteed items received for each class\n   *                            (the index in the array).\n   */\n  function setOptionSettings(\n    Option _option,\n    uint256 _maxQuantityPerOpen,\n    uint16[NUM_CLASSES] memory _classProbabilities,\n    uint16[NUM_CLASSES] memory _guarantees\n  ) public onlyOwner {\n\n    // Allow us to skip guarantees and save gas at mint time\n    // if there are no classes with guarantees\n    bool hasGuaranteedClasses = false;\n    for (uint256 i = 0; i < _guarantees.length; i++) {\n      if (_guarantees[i] > 0) {\n        hasGuaranteedClasses = true;\n      }\n    }\n\n    OptionSettings memory settings = OptionSettings({\n      maxQuantityPerOpen: _maxQuantityPerOpen,\n      classProbabilities: _classProbabilities,\n      hasGuaranteedClasses: hasGuaranteedClasses,\n      guarantees: _guarantees\n    });\n\n    optionToSettings[uint256(_option)] = settings;\n  }\n\n  /**\n   * @dev Improve pseudorandom number generator by letting the owner set the seed manually,\n   * making attacks more difficult\n   * @param _newSeed The new seed to use for the next transaction\n   */\n  function setSeed(uint256 _newSeed) public onlyOwner {\n    seed = _newSeed;\n  }\n\n  ///////\n  // MAIN FUNCTIONS\n  //////\n\n  /**\n   * @dev Open a lootbox manually and send what's inside to _toAddress\n   * Convenience method for contract owner.\n   */\n  function open(\n    uint256 _optionId,\n    address _toAddress,\n    uint256 _amount\n  ) external onlyOwner {\n    _mint(Option(_optionId), _toAddress, _amount, \"\");\n  }\n\n  /**\n   * @dev Main minting logic for lootboxes\n   * This is called via safeTransferFrom when MyLootBox extends MyFactory.\n   * NOTE: prices and fees are determined by the sell order on OpenSea.\n   */\n  function _mint(\n    Option _option,\n    address _toAddress,\n    uint256 _amount,\n    bytes memory /* _data */\n  ) internal whenNotPaused nonReentrant {\n    // Load settings for this box option\n    uint256 optionId = uint256(_option);\n    OptionSettings memory settings = optionToSettings[optionId];\n\n    require(settings.maxQuantityPerOpen > 0, \"MyLootBox#_mint: OPTION_NOT_ALLOWED\");\n    require(_canMint(msg.sender, _option, _amount), \"MyLootBox#_mint: CANNOT_MINT\");\n\n    uint256 totalMinted = 0;\n\n    // Iterate over the quantity of boxes specified\n    for (uint256 i = 0; i < _amount; i++) {\n      // Iterate over the box's set quantity\n      uint256 quantitySent = 0;\n      if (settings.hasGuaranteedClasses) {\n        // Process guaranteed token ids\n        for (uint256 classId = 0; classId < settings.guarantees.length; classId++) {\n          if (classId > 0) {\n            uint256 quantityOfGaranteed = settings.guarantees[classId];\n            _sendTokenWithClass(Class(classId), _toAddress, quantityOfGaranteed);\n            quantitySent += quantityOfGaranteed;\n          }\n        }\n      }\n\n      // Process non-guaranteed ids\n      while (quantitySent < settings.maxQuantityPerOpen) {\n        uint256 quantityOfRandomized = 1;\n        Class class = _pickRandomClass(settings.classProbabilities);\n        _sendTokenWithClass(class, _toAddress, quantityOfRandomized);\n        quantitySent += quantityOfRandomized;\n      }\n\n      totalMinted += quantitySent;\n    }\n\n    // Event emissions\n    emit LootBoxOpened(optionId, _toAddress, _amount, totalMinted);\n  }\n\n  function withdraw() public onlyOwner {\n    msg.sender.transfer(address(this).balance);\n  }\n\n  /////\n  // Metadata methods\n  /////\n\n  function name() external view returns (string memory) {\n    return \"My Loot Box\";\n  }\n\n  function symbol() external view returns (string memory) {\n    return \"MYLOOT\";\n  }\n\n  function uri(uint256 _optionId) external view returns (string memory) {\n    return Strings.strConcat(\n      baseMetadataURI,\n      \"box/\",\n      Strings.uint2str(_optionId)\n    );\n  }\n\n  /////\n  // HELPER FUNCTIONS\n  /////\n\n  // Returns the tokenId sent to _toAddress\n  function _sendTokenWithClass(\n    Class _class,\n    address _toAddress,\n    uint256 _amount\n  ) internal returns (uint256) {\n    uint256 classId = uint256(_class);\n    MyCollectible nftContract = MyCollectible(nftAddress);\n    uint256 tokenId = _pickRandomAvailableTokenIdForClass(_class, _amount);\n    if (classIsPreminted[classId]) {\n      nftContract.safeTransferFrom(\n        owner(),\n        _toAddress,\n        tokenId,\n        _amount,\n        \"\"\n      );\n    } else if (tokenId == 0) {\n      tokenId = nftContract.create(_toAddress, _amount, \"\", \"\");\n      classToTokenIds[classId].push(tokenId);\n    } else {\n      nftContract.mint(_toAddress, tokenId, _amount, \"\");\n    }\n    return tokenId;\n  }\n\n  function _pickRandomClass(\n    uint16[NUM_CLASSES] memory _classProbabilities\n  ) internal returns (Class) {\n    uint16 value = uint16(_random().mod(INVERSE_BASIS_POINT));\n    // Start at top class (length - 1)\n    // skip common (0), we default to it\n    for (uint256 i = _classProbabilities.length - 1; i > 0; i--) {\n      uint16 probability = _classProbabilities[i];\n      if (value < probability) {\n        return Class(i);\n      } else {\n        value = value - probability;\n      }\n    }\n    return Class.Common;\n  }\n\n  function _pickRandomAvailableTokenIdForClass(\n    Class _class,\n    uint256 _minAmount\n  ) internal returns (uint256) {\n    uint256 classId = uint256(_class);\n    uint256[] memory tokenIds = classToTokenIds[classId];\n    if (tokenIds.length == 0) {\n      // Unminted\n      require(\n        !classIsPreminted[classId],\n        \"MyLootBox#_pickRandomAvailableTokenIdForClass: NO_TOKEN_ON_PREMINTED_CLASS\"\n      );\n      return 0;\n    }\n\n    uint256 randIndex = _random().mod(tokenIds.length);\n\n    if (classIsPreminted[classId]) {\n      // Make sure owner() owns enough\n      MyCollectible nftContract = MyCollectible(nftAddress);\n      for (uint256 i = randIndex; i < randIndex + tokenIds.length; i++) {\n        uint256 tokenId = tokenIds[i % tokenIds.length];\n        if (nftContract.balanceOf(owner(), tokenId) >= _minAmount) {\n          return tokenId;\n        }\n      }\n      revert(\"MyLootBox#_pickRandomAvailableTokenIdForClass: NOT_ENOUGH_TOKENS_FOR_CLASS\");\n    } else {\n      return tokenIds[randIndex];\n    }\n  }\n\n  /**\n   * @dev Pseudo-random number generator\n   * NOTE: to improve randomness, generate it with an oracle\n   */\n  function _random() internal returns (uint256) {\n    uint256 randomNumber = uint256(keccak256(abi.encodePacked(blockhash(block.number - 1), msg.sender, seed)));\n    seed = randomNumber;\n    return randomNumber;\n  }\n\n  /**\n   * @dev emit a Warning if we're not approved to transfer nftAddress\n   */\n  function _checkTokenApproval() internal {\n    MyCollectible nftContract = MyCollectible(nftAddress);\n    if (!nftContract.isApprovedForAll(owner(), address(this))) {\n      emit Warning(\"Lootbox contract is not approved for trading collectible by:\", owner());\n    }\n  }\n\n  function _addTokenIdToClass(Class _class, uint256 _tokenId) internal {\n    uint256 classId = uint256(_class);\n    classIsPreminted[classId] = true;\n    classToTokenIds[classId].push(_tokenId);\n  }\n}\n",
  "sourcePath": "/home/salman/Development/Ethereum/Buschcoin/Backend/contracts/MyLootBox.sol",
  "compiler": {
    "name": "solc",
    "version": "0.5.12+commit.7709ece9.Emscripten.clang"
  },
  "schemaVersion": "3.3.3",
  "updatedAt": "2021-01-08T04:57:17.931Z",
  "networkType": "ethereum",
  "devdoc": {
    "methods": {
      "constructor": {
        "details": "Example constructor. Calls setOptionSettings for you with     sample settings",
        "params": {
          "_nftAddress": "The address of the non-fungible/semi-fungible item contract                   that you want to mint/transfer with each open",
          "_proxyRegistryAddress": "The address of the OpenSea/Wyvern proxy registry                             On Rinkeby: \"0xf57b2c51ded3a29e6891aba85459d600256cf317\"                             On mainnet: \"0xa5409ec958c83c3f309868babaca7c86dcb077c1\""
        }
      },
      "isOwner()": {
        "details": "Returns true if the caller is the current owner."
      },
      "open(uint256,address,uint256)": {
        "details": "Open a lootbox manually and send what's inside to _toAddress Convenience method for contract owner."
      },
      "owner()": {
        "details": "Returns the address of the current owner."
      },
      "pause()": {
        "details": "Called by a pauser to pause, triggers stopped state."
      },
      "paused()": {
        "details": "Returns true if the contract is paused, and false otherwise."
      },
      "renounceOwnership()": {
        "details": "Leaves the contract without owner. It will not be possible to call `onlyOwner` functions anymore. Can only be called by the current owner.     * NOTE: Renouncing ownership will leave the contract without an owner, thereby removing any functionality that is only available to the owner."
      },
      "resetClass(uint256)": {
        "details": "Remove all token ids for a given class, causing it to fall back to creating/minting into the nft address"
      },
      "setClassForTokenId(uint256,uint256)": {
        "details": "If the tokens for some class are pre-minted and owned by the contract owner, they can be used for a given class by setting them here"
      },
      "setOptionSettings(uint8,uint256,uint16[6],uint16[6])": {
        "details": "Set the settings for a particular lootbox option",
        "params": {
          "_classProbabilities": "Array of probabilities (basis points, so integers out of 10,000)                           of receiving each class (the index in the array).                           Should add up to 10k and be descending in value.",
          "_guarantees": "Array of the number of guaranteed items received for each class                           (the index in the array).",
          "_maxQuantityPerOpen": "Maximum number of items to mint per open.                           Set to 0 to disable this option.",
          "_option": "The Option to set settings for"
        }
      },
      "setSeed(uint256)": {
        "details": "Improve pseudorandom number generator by letting the owner set the seed manually, making attacks more difficult",
        "params": {
          "_newSeed": "The new seed to use for the next transaction"
        }
      },
      "setTokenIdsForClass(uint8,uint256[])": {
        "details": "Alternate way to add token ids to a class Note: resets the full list for the class instead of adding each token id"
      },
      "setTokenIdsForClasses(uint256[6])": {
        "details": "Set token IDs for each rarity class. Bulk version of `setTokenIdForClass`",
        "params": {
          "_tokenIds": "List of token IDs to set for each class, specified above in order"
        }
      },
      "transferOwnership(address)": {
        "details": "Transfers ownership of the contract to a new account (`newOwner`). Can only be called by the current owner."
      },
      "unpause()": {
        "details": "Called by a pauser to unpause, returns to normal state."
      }
    },
    "title": "MyLootBox MyLootBox - a randomized and openable lootbox of MyCollectibles"
  },
  "userdoc": {
    "methods": {
      "balanceOf(address,uint256)": {
        "notice": "Get the factory's ownership of Option. Should be the amount it can still mint. NOTE: Called by `canMint`"
      },
      "isApprovedForAll(address,address)": {
        "notice": "///"
      },
      "name()": {
        "notice": "//"
      },
      "safeTransferFrom(address,address,uint256,uint256,bytes)": {
        "notice": "Hack to get things to work automatically on OpenSea. Use safeTransferFrom so the frontend doesn't have to worry about different method names."
      }
    }
  }
}